:100000000C9478140C94A0140C94A0140C94A014C8
:100010000C94A0140C94A0140C94A0140C94A01490
:100020000C94A0140C94A0140C94A0140C94A01480
:100030000C94A0140C94A0140C94A0140C94A01470
:100040000C94A0140C94A0140C94A0140C94A01460
:100050000C94A0140C94A0140C94A0140C942D23B4
:100060000C94A0140C94A0140C94A0140C94A01440
:100070000C94A0140C94A0140C94A0140C94A01430
:100080000C9477230C94A0140C94A0140C94A0143A
:100090000C94A0140C94A0140C94A0140C94A01410
:1000A0000C94A0140C94A0140C94A0141705F8063A
:1000B0001404D8F19B0CD8F09B08E0F21C10E0F17E
:1000C0001C1440F1880C40F2880838F0070038F121
:1000D0000703F0F17E0BF0F07E0AD8F25B12D8F144
:1000E0005B0B38F1E10F08F1670ED8F0DB06D8F1B1
:1000F000DB0DB8F2B715B8F1B7820B150296E3160F
:100100000787531701119504001705F80E9A04D8B4
:10011000E19B0CD8E09B08E0E21C10E0E11C1440DD
:10012000E1880C40E2880838E0070038E10703F076
:10013000E17E0BF0E07E0AD8E25B12D8E15B0B387F
:10014000E1E10F08E1670ED8E0DB06D8E1DB0DB88E
:10015000E2B715B8E1B7820B128296E31383875397
:100160001406119503080400F80C9301380C9B80C9
:10017000D40480811311050D00B00E3383510000AB
:1001800080CA0000810A0100814A0200818A0300BE
:1001900081CA0400820A0500824A0600828A07009A
:1001A00083B31081830C09001705F80CDA04D8B169
:1001B0009B0CD8B09B08E0B21C10E0B11C1440B1FD
:1001C000880C40B2880838B0070038B10703F0B196
:1001D0007E0BF0B07E0AD8B25B12D8B15B0B38B19F
:1001E000E10F08B1670ED8B0DB06D8B1DB0DB8B2AD
:1001F000B715B8B1B7820B0D0496E30E8087530F85
:10020000C3119502040400F80D2C01380D3480D47C
:10021000034081130C830801F80B480038907803E1
:10022000C09007022890B805C09045040090F907D7
:10023000C8908006380D080D00B00B6D835100008A
:1002400080CA0000810A0100814A0200818A0300FD
:1002500081CA0400820A0500824A0600828A0700D9
:1002600083B30B00830C08001705F8001B04D8713A
:100270009B0CD8709B08E0721C10E0711C1440713C
:10028000880C407288083870070038710703F071D5
:100290007E0BF0707E0AD8725B12D8715B0B3871DE
:1002A000E10F0871670ED870DB06D871DB0DB872EC
:1002B000B715B871B7820B088296E3090387530A12
:1002C000C2119501010400F803AA013803B280D4D9
:1002D0000210811307810D00B0055083510000808A
:1002E000CA0000810A0100814A0200818A0300815C
:1002F000CA0400820A0500824A0600828A07008337
:10030000B30680830C07001705F8016404D8419BED
:100310000CD8409B08E0421C10E0411C144041886E
:100320000C404288083840070038410703F0417EFE
:100330000BF0407E0AD8425B12D8415B0B3841E19A
:100340000F0841670ED840DB06D841DB0DB842B735
:1003500015B841B7820B038296E3048387530502E5
:10036000119500020400F808B8013808C080D401D3
:1003700020811302810D00B000E38351000080CA88
:100380000000810A0100814A0200818A030081CABB
:100390000400820A0500824A0600828A070083B3AD
:1003A0000180830C06000E08F807F809380800855C
:1003B00069000080B2000080F201008132020081F9
:1003C00072030080A2040080E20500812206008101
:1003D0006207008473000082D400008524050015A4
:1003E0003FC0111F400011270718201645C0301FBD
:1003F000460030270B2040BF2A8050161D50601F3A
:100400001D90602700D870BF5B6880165A40903FEF
:10041000684090C76960A01F69A0A02766D0B0BFE0
:100420007198C0166498D01F64D8D02774D0E0BFEC
:1004300030A0F0BFA2E4B4FFFFFF75D75D2492495E
:100440002700492400112000012000012000018024
:100450000007E464FC2FFF75D75C24924929000053
:10046000280000200000C00000000000000000DEA6
:100470004807FFFFC000022000012E49293FFFF975
:100480003FFFF93FFFF93FFFF9249249EDB4FFFF29
:10049000FF74747407111111061000010113740127
:1004A000011111010182810101111101519000011D
:1004B0001183E524FC2FC1000CEB0358491A1249A3
:1004C000D09249C49249849249249249449249EC79
:1004D00028FC303F96600004BB802492F024925E9A
:1004E00024924E24924B24924A249249E46603FFBC
:1004F000C3FFFFFF75D75B24924984A249C4924988
:10050000109249021249007FE1E4AE07F0BF8888EB
:100510008888673535356711101167121114671116
:100520001116671111406711140060888000F56E84
:10053000FC6FC50000947800975118095111189567
:10054000111118911211180AA611184789111831A2
:10055000891118FCEEFC713FA8590000A114890014
:10056000A1111490A1121149A1111119A111111475
:10057000A11111130BB716BBF5EE13FFC7129A1199
:1005800019BB0A1119A4851119A1131119A1116B15
:10059000B007119A4800719A11000B0A21D7AE17C3
:1005A000F1BF0000A00093734373911111119112D8
:1005B0001116911111185111116011111600111617
:1005C000A000DD3DFCAFC90000064600000777092A
:1005D0006487A7951187779112807051113879112E
:1005E00011187911111879DD2CFCB23F84670000D5
:1005F0008113670081111370811211378111111756
:10060000511111131111111111111111D05E23FF8C
:10061000CB289366249366249366649366C493669A
:100620000C9366019366007E10C08A27F2BF249265
:100630004924924924924924924A24824B2492507C
:1006400024928092480041F19FFFFFFF5555555578
:100650005388883554620645511111155AA11AA5BF
:100660005AA11AA5555115557881188961D18EFF67
:10067000FFC10249240224920236DB0212490249D8
:100680000902EDC9009249024924D7FEFFF03F66F6
:1006900066666622262BB655565346111611966687
:1006A000666166A7B8C1A611111106666666664145
:1006B000D184FC3FC1000004000004000004924902
:1006C000249524AC85B6CC85248C85B6CC6084FC7E
:1006D0004002AAAAFFFE010200020002000200027C
:1006E0000002D794FC507F000000000000000000D2
:1006F00000000066666666888628861116534610D6
:100700001611761116111648CD03FFC440249240ED
:10071000476A4001B24001B25B00015B000049241E
:100720009296DB6D488E07F0C549049292872200AD
:1007300000020000020000010000004900929280C7
:10074000E440BE0BF13F209241C255810186010079
:100750000001018601000001249249B6DB6E20A150
:1007600011FC6FFF0000000020000030000040007E
:100770000092000492400492400492405000FC9F7A
:10078000C2FFFDE0E0C0C3CFCF5000FCA043FFFF9D
:1007900007030080FFFF5400FCB0845555555555A4
:1007A00055508500010001550155011000FCC0C5E0
:1007B0005111FCD13F249249249249249449249612
:1007C00049249849249049240049200049A0000365
:1007D000FFC73C3F1F0F0F0F0600A000FCE1881071
:1007E000FCFFFFFFFF6C00B000FCF1C902AA0AAADF
:1007F0005556556A556A555A515A015A50000502C4
:100800000ACFC3C181818181E0500009124BFFFFF3
:10081000FFFFFFFFFF7F50000D228CF0F0F8FCFE81
:10082000FFFFFF50001132CDFF7F000000C0FEFE31
:10083000500015433F8707070707070707F0CC1D40
:100840006FCF0006DB00072B0007BB00064B01241F
:1008500092092492492492492492B00023B39081B2
:100860005A815A855A955A555A555A556AAAAA50C4
:10087000002573D18080C0F1FFFFFFFF5000298465
:10088000120F0000001FFFFFFF50002D9453FF3F89
:100890000F07838181F8500031A494FEFEFEFEFE16
:1008A000FEFEFE500035B4FF070F1F3F3F3F3F3FA6
:1008B000B400FDCFD60C050415145515551555017A
:1008C0005A015A016A300039D57B0F077F7FFFFF3D
:1008D000FFFF508041FED855555555555555555536
:1008E0005555505540554251514605D924924924F9
:1008F000924925124926124926924900000000001B
:100900000060000050004A161AF8F8F1C181030394
:100910000750804E265B555455545554554055004C
:1009200054005400540250405236BF055505550539
:100930005501550055001500158015B000564FDDC6
:10094000015A0556055A055A156A155A155A155A67
:1009500030005A571EFFFFFFFFFFF0C0C03000EE0F
:10096000675FFFFEF8F080001E3F70085E77A055BD
:1009700043554055405568556855686AA8AAA8501F
:10098000046287E1800000000000155515551555DB
:100990001555155550006698221F3FFFFFFFFFFFBA
:1009A000FF50086AA8635402540054005500554093
:1009B00055555555555550046EB8BF801500150056
:1009C0001500550155555555555555300073FFE5E2
:1009D000C0C0C1FFFFFFFFFF300076C9260003FF44
:1009E000FFFFFFFFFF10007AD967D0007EE9A8AAB9
:1009F000A9AAA9AAA9AAA8AAA9AAA9AAA9AAA9E02A
:100A00002282F9E924924924924924924960000300
:100A10002425122424122424122424121800870AC4
:100A20002AFFFF0F0F0F0F0F0F08008B1A6B180014
:100A30008F2ABFF0F0F0F0F0F0F0F01000974FEDDB
:100A4000F6009B5B2E75B6DB65B6DB6400006404C4
:100A500090642492642512642492640490D0029FCE
:100A60006B6FAAA1AAA12AA100211521D5001515F5
:100A700015D5E020A37BB0528A528A50C052A852AA
:100A8000A8C00C542854281800A78BF10F0F0F0F83
:100A90000F0F0F0F0800AB9C3218CCAFAC7F249027
:100AA00000249000253000265000000000000000C7
:100AB000000000000000C111FFFFF4002000003022
:100AC00000004000009200049249049249009249BB
:100AD000000000D2CCB3FCF54D249224A49224A4AF
:100AE0009224A52A24A5B824924824924800000004
:100AF000D022B7FD364400004C00002492492492D5
:100B000049000018249049249849000000C022BBE5
:100B1000FD771500200015551555000055D55515C4
:100B20000000F022BFFDB8020090009090209A9043
:100B30002090908090902090002090DB0000DB1CA3
:100B400000C3FDF9005500550055005900550055EA
:100B5000000000001800C7FE3AFFFFFFFFFFFF0084
:100B6000001911CBFE7F00200000300024C00024BB
:100B7000900024900024900000000000000010006D
:100B80003DE5970506F13405A777C405C4D2D00525
:100B90002A2D3C1DDB52AE7B10C164534FA5ABCB5D
:100BA000D50EC7D50029B157D0E33D8860B229EBF7
:100BB00064B51EBDF4E40ABE9DB439AEA02BEDB4FD
:100BC0007018237D29B8A3D7BE5D07EDD87A76DCEF
:100BD000F62182C8AA29A379D0E50D383AD3E94C89
:100BE0003CB2BD1D8B8D44CA79EAF3AA28EDB863E7
:100BF000FA75C34E0EB4FA1C97D735B004A7D614B5
:100C000026AD6A28DB470E53B6E75D0D218FEA97C4
:100C10004DD188E5EB2BB53D0AA029DB470E53B635
:100C2000E75D0D218FEA974DD188E5EB283FE6C4BB
:100C3000F15427DB470E53B6E75D0D218FEA974D40
:100C4000D188E5EB0947D1D42BDB470E53B6E75DDE
:100C50000D218FEA974DD188E5EB08C6A7D6255020
:100C600027780DC30E35CDDABC53B6D663FA75CEF0
:100C7000DB3A4EBA1A5474EDB474B28372BB38D7EF
:100C800029E00C5AFFA32294C3DD633AE161AD7DF4
:100C9000B631579E9DB72BCD1ACB79DCD1FA2B07F5
:100CA000C53F0BC1F4058F1C42E75CD4F5EF97DB21
:100CB00073D8860B22A86EFAC3340974FD76141714
:100CC000F2FB6961AF73B6E7FB4EC52F07D0163C48
:100CD000710B9D73563E5DEBACEDB9EC4305914E47
:100CE000DE72FB68F39894EB9E65C97F2FB6E5161C
:100CF0008AF5405BDDD0CD693B6E7B10C1644B64EF
:100D00000CFEFD3B6961AF73B6D7FED3B153AE6045
:100D1000DF6DA2E8B457A75CB103995E1C57423C53
:100D2000326F0DB05445B0A4DB4B9BC29E7ABCE73A
:100D3000E5F6DCF62182C8A76F397B6AF4F5E87125
:100D40003D8CB35A2FB6728AC1F5405B2BB199081E
:100D5000E35A9CA3110F68B7A34ADFA60FA1B743BC
:100D6000F4EB5F9EAF3A76DC669D53B79CB2C0D77A
:100D7000BE9D73CCBAD3E9DB6B560FAA48B0F4BD65
:100D8000676DCF62182C89792B479D19A754C4B27F
:100D90006BEB9FEE8691892B0D38D6BC52A537ADF3
:100DA000A387EA8061EDB94F3B94E2656FD35B4561
:100DB000E983F4031E0A1D94C1F2C83AEAD1FA6924
:100DC00083F45591325E0FA76D1E7317E9D6BF32BB
:100DD000E4BFA76DCA2D15EA8051558D732BB9DB81
:100DE000728B45797AE01FA64AD1E74A79DCA6BA28
:100DF0006FA86C676DC3710F6125EB80E3D894C158
:100E0000F44759EC4AA015460B35A4C52A6FFCC11E
:100E1000F4D3F815460B35A4A57E8FC4DFF983E91A
:100E2000A7F00D460B35A4A47EE69FC00D460B35FA
:100E3000A4A57EE69FC00C460B35A4A44D3F800EB2
:100E4000460B35A4FC7E5FB9BFE00E460B35A4A56A
:100E50007E3F737FC00D460B35A4A47EE6FF800B5A
:100E60008811299467D5001DD6C01264BC52A176A2
:100E70007144C393F4A555F95240060617140509A9
:100E8000325819F3D58F897BC56B3D9A656E7618FC
:100E9000C408CEEC0184B0F8242224F8FE92929289
:100EA0006C7C82828244FE82824438FE92929282DC
:100EB000FE121212027C82929274FE101010FE82B8
:100EC00082FE82826080827E02FE30284482FE8022
:100ED000808080FE0C100CFEFE0C1060FE7C828276
:100EE000827CFE2222221C7C82A242BCFE12325252
:100EF0008C4C929292640202FE02027E8080807E7E
:100F00000E30C0300E7E8070807E826C106C820647
:100F100018F0180682E2928E82007C827C000084A7
:100F2000FE8000C4A2928A84448292926C1E1010A9
:100F3000FE105E929292727C929292608262120E87
:100F4000026C9292926C0C9292927C202020202033
:100F5000BE0000000010107C101000000E0000A069
:100F600060000000C0C00000000C02A2120C8060F3
:100F7000100C020C12EC40A0FE828282FE2020FEA9
:100F800020203E6C846C3E80C0C0FEFE0C02FA0243
:100F90000C1E78FA030A1E2F6E0041C45011720015
:100FA00000000000000000000000003C7E7E7E7E0D
:100FB0007E7E3C0000000000001B3405333D0C0C1D
:100FC0007D730100030300000000001C6E96F6FA1A
:100FD000966E1C000000000006060A0830220E0E65
:100FE000605F312D311F0000000000000096F69672
:100FF0006F1FFE7C000000000000003F001C4270DC
:10100000711902000000000000007CFE1E6E97F7C0
:1010100096000000000000000000000219717042FC
:101020001C003F00000000008080BCFEFFFFFFFFAF
:10103000FFFFFEBC80FF80001F7F7F3F7F7F3F7FE1
:10104000FFFF770307070300FF003C7EFFFFFFFF62
:10105000FFFFFEBC808000070F0F1F3F7F7F3F7F99
:101060009FBF7F7F7F7F3F00000638C0FEFFFFFFEE
:10107000FFFFFFFE7C00000000003F7F3F7FFFFF7F
:10108000FFFF1F0600000000007CFEFFFFFFFFFFC8
:10109000FFFEC038060000000000061FFFFFFFFF34
:1010A0007F3F7F3F000000DF03A603750364030753
:1010B00003D602C5026802370216020502A80177AC
:1010C0000166010901AC005E07AF066C064606B179
:1010D000046C064606B1046C0634044606B1046C82
:1010E000064606B104B10480C0E0E0703078FEBF6F
:1010F0001F1F0F8F0F6F4F0EFC000000000000013C
:10110000010000FC023D7DFDE3F6DC890B0E0603C9
:101110008180402090483CF89CBEBFEF07FB9FBFFA
:10112000AFE3040407070505040202010000000004
:1011300000C0C080F0D0F0E0FC9C68D89010B0F007
:10114000180E037FFF0000000003BEECC0839E3F2B
:10115000A1874F2E150D03800000C07C0F000000FA
:1011600000003F7FFCF0FE878080C2C2C6FCF8FF13
:10117000F8FE830000000070FC020C1C0000000060
:10118000000000000000000000000000000000005F
:101190008F5F7CF8F0F0F0F0F0F0D0E0F080F0C07D
:1011A00040C0C0C0C0800000040201080423190729
:1011B00003031F3F37737170B0B0206000010080DF
:1011C000E0E0FCFCFCFC7E46020000000002069E03
:1011D0001CFCF0F0E080803F7FFFFFFFFFFFFFFE81
:1011E000ECC0E0F8E0C0F8F3CFFFFFFFFF3F0900DD
:1011F00000040C0D1D1F3F3F3F3F3F3F3B3F3F3B28
:101200001F0F0301000000000000C00000000000EC
:10121000001E21D94131691E0000000000000000BD
:10122000000003DCE0F08C020105957F558501018B
:101230008678E0C0000000000000000001030C8080
:10124000F8468100F847808000000100000000009F
:10125000000080C06030101098C8C888080888C88E
:10126000C8983060C0000000C0F80F0030230200B2
:1012700001733AE138E039E37201203081FF000068
:101280001F704046C4C0406322282C6040486C3028
:10129000123320381F000000F8F824FFDBFBFB238B
:1012A00023FBDBDBDBDBDCFC3820E0C0C0C000C0A4
:1012B000F6363FFFC93E7F4181B9808080B8C1FFCB
:1012C0007FB1F14140C0807FFFE29EFFE1FEFE90D2
:1012D000838F8D93F3E19DFFFEE3FF9C7C7F0300F2
:1012E000C06030D010187CC61B514341511BC67CD6
:1012F000185090B060C000F01FC805C806CF98F322
:10130000055362920B01F398CF06C812C91FF00172
:10131000F98DE587E185E589E386FCFC86E389E9CB
:1013200085E187E58DF901070F020C090E3E3E00AD
:101330000403010300AA7A00000001020609120555
:10134000170F0C06040C16121912AADA00800002FC
:101350000313030F1210090F0E001E2A383214A7B0
:10136000AA00000004060D05070100020114000197
:101370001C1A280000000000000203130B050C05D6
:10138000140F0E000608060503AABA0000000102A9
:10139000130C090D053E3E3E000F18161409A9EA6C
:1013A000000000020317091A0112043E3E283C1EE9
:1013B000003C3C00004092400406070F0C050D3E27
:1013C0003E3E2856474C012EA4DA000400040602D3
:1013D000090700020F0E05002D00100A1E0CAABA04
:1013E00000000010040F0F1A053E3E3E3E003C0078
:1013F00032281921AADA000000100F130F1203057A
:1014000012051201601E463C5A3C000040924016F4
:101410001C030F0C0F1313151301F41E535E02343B
:10142000A4DA00060020260401120B0E0513130C8B
:1014300080FF7E6AFF66C55460000844640FFFFFAA
:101440004000FFFF40000FFF201FFFFF2011FFFFA4
:101450002001FFFF20001FFF2022FFFF08222FFF97
:10146000082222FF0833FFFF003333FF00333333FA
:10147000004400FF0044440F00444444005511FF61
:10148000005551FF005555FF006FFFFF0066FFFF3D
:1014900000666FFF0077FFFF00777FFF007777FF21
:1014A000006677FF00667777006667770066667785
:1014B000006666670015FAC3018237D2BC38C63CA5
:1014C0009F00000000002000001200000043000008
:1014D000870F102ECFA674EDB8711FCE0CEDB80B90
:1014E0002E872804A61FA00A1E3C0F1E3C64C808B5
:1014F00053C417E88F0B8B0B870B830B0B88C8E546
:10150000D8206006D6C23E800E06D9743947A7FEA1
:10151000F8600C480C320C1A0C030CEC0BD50BBD0C
:101520000BA50B930BF044F155F266F377F4FFD55E
:10153000F08D14A1C881CFD9F1AF200006F9941B1A
:101540000C63CD2641CD1811FAC3311CD3292FD2FB
:10155000C3C013389075D4E03B1E9A847C5500D9E3
:101560000DA40D7C0D4B0D0000250DF30CB60C7673
:101570000C840588B074FAC29313C1A77F2FAE768E
:10158000DCFE0AA18DFF5FF464471AE76DCF5D02B0
:10159000B31FD52C9A983A7D61495E68E60F961F75
:1015A000EABCF5528DB181FEABCF2CE511E7BEFD53
:1015B000311A9E135F6DCF5D030C7F54042A7A04A9
:1015C00010100805099090402048888402040909F9
:1015D0008454900804081050402010244442010212
:1015E000FFFFFFFFFFFFFFFFFFFFFFFFFFFFFFFF0B
:1015F000FFFFFFFFFFFFFFFFFFFFFFFFFFFFFFFFFB
:101600007F3FCFF36F5F3FBFDF4FB3FCDB974F6F81
:10161000DBC9D23F1B42C9EDF6F2F48F86B0F2FB74
:10162000FFFFFF3F47AB47A954A1078F471FFFFFAD
:10163000EFE7D1CA958A512A152A542A85AA80C76C
:10164000FFFF7FFBFFDFF7FFDFFEFF7FFDFFFFEF09
:10165000FDBFFFFFFBFFFFDFFFFFEFFFFFF7FEFF19
:1016600003F96CF802E46A24A923872F3F7FFFFF68
:10167000FEFDFCFDC4B8AAB9AAB980BEC7BEC0F9B8
:101680000F732D56EE641278B2562208CE95830F52
:10169000005D02808080C0C0C0C0C0C181052A003A
:1016A000FF1FCF975B9BCDD5D1CD9B5B97CF1FFF06
:1016B000FF00BD78F50CE9E5E5E90CF578BD00FF24
:1016C000FF07532995A9954B077F7F7FFFFF7F7FFA
:1016D000FF005522AAAA885500A5AB049A948AA5B2
:1016E0007F7FFFFF7F7F7F074B95A995295307FFDA
:1016F0002B849A948A25AB005588AAAA225500FF0C
:1017000000B600AA55AA55AA55AA55AA5500B60072
:10171000006D00AA55AA55AA55AA55AA55006D00F4
:10172000FF0073E0DE1EBD81BDBD1EDEE07300FF65
:10173000FF00CE817B78F707F7F7787B81CE00FF3B
:10174000FF005522AAAA885500AA2AA22AC8AA6A76
:10175000FFE0D5A2AAAA88D5E0EAE2EAE0FFEAF52E
:10176000A26AC82AAA22AA005588AAAA225500FF5E
:10177000EAF5FFE0EAE2EAE0D588AAAAA2D5E0FF0E
:1017800050AA52A852AA50AA52A852AA50AA52A885
:10179000056AA58AA5AA85AAA58AA5AA85AA650A11
:1017A000FF003907EFE0DE1EDEDEE0EF073900FF65
:1017B000FFF8E7DEBD83552A542983BDDEE7F8FF35
:1017C000FFFF3FDFFFFDF3FFDFEFFFFFFC7FFFFFCA
:1017D000EF9FFFFFFBFDFFFFFFFFE77BFFFFFEFF2C
:1017E000EAEEE0EEEAEEEEAEEE0EEEAEEEEEEEEE8F
:1017F000EEEEEEEEEEAEEE0EEEAEEEEAEEE0EEEA7F
:10180000EAEEE0E204EA446A6A44EA04E2EEEEEE5A
:101810006E2E407E7E7D7D01017D7D7E7E402E6A26
:10182000000018C8080818C8080818C808080000E8
:10183000000060212022602120226021202200005F
:1018400000F9FAF9FAF9FAF9FAF9FAF9FAF9FA00F3
:10185000007F7F7F7F7F7F7F7F7F7F7F7F7F7F0096
:10186000EAEE000000F6FAFAFAFAFAFAFAFAFAFAE6
:10187000EEEE000000878F0F8F8F8F8F8F8F8F8FEF
:10188000FAFAF8FAFA02F6FAFAFAF6000000EEEEC0
:101890008F8F8F8F8F808707878787000000EEEA02
:1018A0000000C0C7C0C8C087C008C087C0C800004B
:1018B000EEEEEEEEEEAEEE0EEEAEEEEAEEE0EEEABE
:1018C000111111F11111111F111111F11111111F2C
:1018D000111111F11111111F111111F11111111F1C
:1018E000FA79BAB9FA39FA39FA79BA79FA39BA79A0
:1018F0007F7B7A7D7F787E787F7C7B7C7F787E7F24
:10190000FA797A79FA79FAF97AF97AF9FA79FAF9BF
:101910007F7B787B7F787E7D787F787E7D787F7F08
:1019200000FEFEFEFEFEFEFEFEFEFEFEFEFEFE00D3
:10193000E8037303E3A3E303E3A3E3E3037303E82D
:1019400000F9FAF9FAF9FAF9FAF9FAF9FAF9FAF9F9
:10195000007F7F7F7F7F7F7F7F7F7F7F7F7F7F7F16
:10196000FAF9FAF9FAF9FAF9FAF9FAF9FAF9FAF9DF
:101970007F7F7F7F7F7F7F7F7F7F7F7F7F7F7F7F77
:10198000FAF9FAF9FAF9FAF9FAF9FAF9FAF9FA00B8
:101990007F7F7F7F7F7F7F7F7F7F7F7F7F7F7F00D6
:1019A000EA0EB032CCDE1EDEDE1EDECC32B60EEE2D
:1019B000EEE0D7A08E5D005D5D005D8EA0D7E0EA11
:1019C0000000000000000000000000000000000017
:1019D0000000000000000000000000000000000007
:1019E000BB7B7BFD7EB9C7DFDFDFDF3FDEEDF3CB07
:1019F000CFD7BBBC7EBEBDBB9B63787E7EBEBDD356
:101A0000AB5353857A7DBD9DFD4D1B075865EDC3D6
:101A1000C9D5B5A86A96A89495656A6A75B4BAD00E
:101A20008C033F070B0D06060405030C1ED8C70FD9
:101A30003F0F4300008080C0C0E0E000006F011C49
:101A400000033F073B7D3E1E1CCDE3ECDED8C70FF5
:101A5000000F43600E3F7F3E06607371776F011C7D
:101A60008C033F073B7D3E1E1CCDE3ECDED8C70F49
:101A70003F0F43600E3F7F3E06607371776F011C1E
:101A80008C033F073B7D3E1E1CCDE3ECDED8C70038
:101A90003F0F43600E3F7F3E06607371776F01001A
:101AA00000033F073B7D3E1E1CCDE3ECDED8C700A4
:101AB000000F43600E3F7F3E06607371776F010039
:101AC0003B3B1B0D0E01FF5757FF070F0E0D33CB8E
:101AD000C0C0808000003F15153F00000080A0D0EE
:101AE0008C1300FF00393A3A38B9BB00FF00D70F1A
:101AF0003F1700FF003B3B3A3A383B007F00111C88
:101B00008C033F073B1DE6FAF8E5036CDED8C70FF0
:101B10003F0F43600C3A651515657270776F011CB5
:101B2000BB7B1BA552A954AA54A953871E6DF3CBA6
:101B3000C1CA95AA552A552A552A152A158AA4D10B
:101B4000081424C34040404020110E0810F00E0934
:101B5000444682818142427488885422212121F2A4
:101B6000BB7B7BFD7EB9C7DFDFDFDF3FDEEDF3CB85
:101B7000000303040E0E0D0B0B03080E06060100F6
:101B800000FE80BE80FE80BEBE80FE80BE80FE0065
:101B9000007E425A5A524E52524E525A5A427E0079
:101BA000C0DE101E101E101E1E101E101E10DEC0E5
:101BB000007E425A5A524E52524E525A5A427E0059
:101BC00055AA55AA55AA55AA55AA55AA55AA55AA1D
:101BD00055AA55AA55AA55AA55AA55AA55AA55AA0D
:101BE000FDFA77AFDFEFF7FBFDFA77AFDFEFF7FB3B
:101BF000FDFA77AFDFEFF7FBFDFA77AFDFEFF7FB2B
:101C0000FDFA772F9FAF07EBED02FBFB00BE3E0016
:101C1000003E3E004F2F402B5328542A542A550093
:101C200000AA54AA54AA14AA940AE4EA00FAF800F2
:101C3000007A79007E7E007F7F007F7F007F7F00BB
:101C400000B6B630B686B6B630B686B6B036B6B6DC
:101C5000006D6D0C6D616D6D0C6D616D6D0C6D6D5C
:101C600086B6B630B686B6B630B686B6B036B6B636
:101C7000616D6D0C6D616D6D0C6D616D6D0C6D6DDB
:101C800086B616E016160A0A080A1616E016B6B642
:101C9000616D007F008080C0C0E0E0007F006D6D5E
:101CA00086B6B630B686B6B630B686B6B036B600AC
:101CB000616D6D0C6D616D6D0C6D616D6D0C6D0008
:101CC00000AA54AA54AA54AA54AA54AA54AA54AA78
:101CD00000AA55AA55AA55AA55AA55AA55AA55AA61
:101CE00054AA54AA54AA54AA54AA54AA54AA5400AE
:101CF00055AA55AA55AA55AA55AA55AA55AA550096
:101D000086B6B630B6069666708606B6B036B6B6F5
:101D1000616D6D0C6C616A62026A616C6D0C6D6D57
:101D200000000000000000000000000000000000B3
:101D300000000000000000000000000000000000A3
:101D400000AA55AA55AA55AA55AA55AA55AA55AAF0
:101D500000AA55AA55AA55AA55AA55AA55AA55AAE0
:101D600055AA55AA55AA55AA55AA55AA55AA550025
:101D700055AA55AA55AA55AA55AA55AA55AA550015
:101D800054AA54AA54AA54AA54AA54AA54AA54AA63
:101D900055AA55AA55AA55AA55AA55AA55AA55AA4B
:101DA0001030509050381413121438509050301096
:101DB000080C0A090A1C28C848281C0A090A0C0829
:101DC00000307C787E78200000307C7E7C30000003
:101DD000003C6A566A563C00004C52524A423C0053
:101DE00000542A542A542A0000421824241842007D
:101DF000030102010FCE3279EB32B54D32B00653FA
:101E000035AA00550E4A0E3F0E360E2C0E220E132A
:101E10000E060E0E26A60E9830FCF40AAF3470B0F3
:101E2000D7E0143F3D21767142C35CFD413F00D1B4
:101E3000D3FACF6A74E6FAF5F6ECFCB9CDDBEDFF28
:101E4000F973E8C899F45C3A7FEBA3FCFEC73B65E5
:101E5000D0E8BDAD6AC9FF0EFFF7F8FFFEFEFFFF39
:101E6000FEFEFCFDFCFDFDE9FCE9FCD446BFF06E86
:101E700063E09B25A0F322FFF7FFF67FEFFFFFFD56
:101E8000FDFFFEFEFFFFFDFDFCFFF78EFBDFFFFF0A
:101E9000FFFFFFFDBFFFE7AF7FFC7FFFBEFBBFF093
:101EA000FFDF7FFFFFBFFF3A7872BA7F7D7E38E6A3
:101EB000FBF7DFFFEAF3ED67BFBBFF7839DBC3EF6A
:101EC0007FFFFFF5EFDF1FFFFFBFFF3C72FFF87FD3
:101ED000FB7CFE76FFFFFF77DFEFF7F9FBFDFDFFF1
:101EE000FFFFFBF9FBFFFF17FF7FFFFEFDFD7DFB03
:101EF0007F67777F76F3FDFFFFFD7F57BFF5AEF578
:101F0000A3A7CC262CFBB2EFF57BFFB7FFFFFFFEAC
:101F1000DCFBFFF7D7FFB6B7E6F3F9FFDFFFFBE126
:101F2000DFBF3FFFFF7FFFF1FDE1F5FF77EBE98CBE
:101F3000FFFF5FF7FBFDFEFFFFFF7F7FFF7EFFFEE2
:101F4000FD7B3FDFDAFEF6E4F97336528FAB704962
:101F500056314AFDFEFFFFFFFFFF5F1F5F5FFF3F40
:101F60005F1FCFFDBFFBFDFFF7DEE6BDF13FDBFFEF
:101F7000EF4EEF6ECCE674FF5BBF7EF7EF9F7F7F87
:101F8000DFDFBEFBB8BCBF1EF93FF35FFF6B6F57CF
:101F9000FDDC953545680B0047164EF75B335FBF98
:101FA0007F37F7EEFECFFFC77F46727F7927425F0C
:101FB000263DBB5B5BEF534FB62F1BCB37F20E3783
:101FC0000FDFEF3F6FDFBB3ADB7E4963FBEBFB8B41
:101FD0003B787D9FE2C7539C6C7B81CA0E02000058
:101FE0000000000000000000000000000000E01001
:101FF0000804020201010101010202020408F000CA
:1020000000000000000000000000000000000000D0
:1020100000000000000000000000000000000F10A1
:1020200020E080004040C78F8FC780C68FCF390027
:1020300000000000000000000000000000000000A0
:102040000000000000000000000000000000C030A0
:1020500090E07173625E4C8878697879F4EB08F0EF
:102060000000000000000000000000000000000070
:1020700000000000000000000000000080F01FC011
:102080003FFF9AE9E5F5F557FDF5F5753F1FE00FC0
:10209000F800000000000000000000000000000048
:1020A0000000000000000000000000C03F00BF4032
:1020B00000C12DDF3715372427F51AEA04205F40C9
:1020C0004F38000000000000000000000000000089
:1020D000000000000000000000000000010101807D
:1020E000C0FFA09DF2800000C0BF80BDA2A0C000C4
:1020F00000000000000000000000000000000000E0
:1021000000F8F8040303078838304080C040C0302E
:102110003030181818080808880808080838B0303F
:1021200030704040C0C0B0180F07030696F800009A
:10213000008181F718182038300000C0C08000C02E
:10214000C000C08000000000C1E2E2C20202000044
:10215000C0C0E0C000000003070438C7C70100008A
:10216000FC8383E000000000F0F0FF7FFFFF007FB2
:102170003F007FFFFEF0FFFFFFFFFFFFFE7800FF45
:10218000FFFFFFFFFEFE00010202020101FE000050
:10219000C73D3800808000000F0FF10100000004EF
:1021A0000400080000010707070F0F0F07070701CA
:1021B0008181C1C143070080008000FEFE03000052
:1021C0000306049CF3F71C80808001040438403827
:1021D0001A00081030C03838843838F83820060E15
:1021E0003F3F1F0300181C73E78798070700000094
:1021F0001C1E12116C64626161616678FCCCC0C007
:10220000C0C0C0C2C67C6C6C1010786CE0E0C0C26C
:10221000C2828C90F060606C7D111112121C000063
:1022200000000000000000000080404000000000AE
:10223000008080800000000080800000000000001E
:10224000000000000000000000000000000000008E
:1022500000000000000080808007163C7CF0F0FE4B
:10226000F767D909425434F0F8FF3E80008080803F
:10227000000080F00C04C00C48004080008000FC8E
:10228000C8FCF0E0E0E0F1E2E7CC9F3C3CBF3FFF60
:10229000FFFFFEFEF4F4FFFEFFFFFC1D077D3D0384
:1022A0002530383C3F3FFFF6FFFFFFB61E0F06000C
:1022B00001030307070D0D0F070F3FDF3EFEFCFF75
:1022C000FFFFFFFFFFFFFFFFFBF1F8FCFE7F7F6FCB
:1022D000EF3FFFFFFFFEFCFF6F7E230200000000C8
:1022E000000000000000000000000000383EFDFA81
:1022F000FAFDFBF5F5FFFBF5F5BB393A00000000F0
:1023000000010001010100010200000000000000C6
:1023100000000000000000000000000000030303B4
:102320000303030303010101010100000000000099
:10233000000000000000000000000000000000009D
:10234000000000000000000000000000000000008D
:10235000000000000000000000000000000000007D
:10236000000000000000000000000000000000006D
:1023700000000000000000000000000000E020401D
:10238000D8B0ACD2F4BEBABA1252ACD070D04000C1
:10239000000000000000000000000000000000003D
:1023A00000000000008000C0C0CCFCFBFB6F7B9EE7
:1023B000FE6E6FFDEDF8F9EC6C657DF9ED7C7B9CB4
:1023C000F7FC9840C080000000C00000C0E00000A2
:1023D000E0FCF8F0C5D19B9F8FC323010103070EDA
:1023E0003EFEF0F9D94F4F5AFBFCFCFC7E1F0E0756
:1023F0000203010607CFFFC6FC7FC7FEFF0100F006
:102400009F7FFFFFF8D3CF9F0F01000080C0E0F057
:10241000B0303D1F1F0737171E1B3BBCE0C0C0007C
:1024200000000000E0838F9F9FFC07050000003F35
:10243000FFFEFDFFFFFF7F6F400000C24E9FBDFF0C
:10244000BE3E1E000000000000063EBE7EBEFE0E28
:102450000600F0F0F9FFF9F9F9FBFFFC7E00008FB0
:102460003F3F7FFFFFC7BBDD5EBEBE7EFEFEFEFEC2
:10247000FEF9F70FFFFEFEFC81717303838C6F6F13
:102480000C1317176F6F13FDFCFFFFFFFFE0DFDF7B
:10249000E0E70738383CC4C4E0DCDCDBE3E326FAE1
:1024A000C301834BE881199467CBD52F49929D9145
:1024B0004A79DCA75026CEEC0190FCF4935B0049EE
:1024C0007E7AB1F4D32B38232067F60E26A60E5E53
:1024D0009625CD000F1BE8C6C35EE6983809AF34D9
:1024E0006BB35A00031512050E150B0506091205EC
:1024F00001111501120F030B0105120F0401120B3C
:10250000080F0C19100F14090F0E00001325100FDF
:1025100014090F0E1825100F14090F0E05140805C5
:1025200012000000132505140805120018250514D3
:1025300008051200050C0918091200001825050CE1
:1025400009180912049ED2B0049ADA00910E820E84
:102550007E0E7A0E670E5F0E085335AA07F80474D4
:102560009FF00000000088000044001000020000FE
:102570000103121B8586B9ECEC9AD847C0151744A5
:1025800080B1E3885C81FEABCF0000F0F8FED68618
:1025900016160C1807FFF8FE9EDEC0008080800033
:1025A00000000000C0C0C0C0C0C0800020E0E0C08B
:1025B000C0000020E0E0C0C000000080C0C0C0C07B
:1025C000C0C0800000000000C0C0C0C0C0C0E000AB
:1025D00080C0C0C0C0C0C0800000000080C0C0C0BB
:1025E000C0C0CEFEFEFE00000000F01F2040808034
:1025F0000000F00F0000000000000000E0BF55AA3E
:1026000055FADFAA55AAF50F00C0C1418181C3FF69
:10261000FE600007FFFFC10100F8FBFBFB0342DF88
:10262000FFFFFF80C1FDFDFCFD0000FFFF7F0703F2
:102630000000FFFF7F07031C7F3FFFCDCDCDCDC145
:102640008F8F0E0E7CFCFDFD070501011D7F3FFFF6
:10265000CDCDCDCDC18F8F0E0E3CFFDFDFDFD0C0E3
:10266000C1D1DFDF000000F8070000F00F0001011A
:1026700001020202E21E02020256AB56AB55FBAF4C
:1026800055AA55FA0700001C1CFCFDF1F1010100E0
:10269000000003010180808083818100000001012E
:1026A000010080800000000081818180809CFCFD11
:1026B000FD01000080808080818101010103030110
:1026C0000000000101018040A050A850A851A9D1EC
:1026D00069B1DB6BB1D868B0D8E87179F979F9F9EB
:1026E00079F9F8F8F0FF54AC54AF58F0808080804E
:1026F00080E09F80808080D56AD56AB57FAA55AA80
:10270000FD03000000FCFEFEFEC040808080808053
:10271000BEFEFEFF0183FBFBF9FBB8077F7F0703CB
:10272000033F3F3E78FFBFBFBFA18183A3BFBF0070
:102730001CBF3F7B73F3FBB3030000008040A0503D
:10274000A854AA55AAD56AB5DA6DB6DB6DB6DBED2D
:10275000F6FBFDFEFFFFFFFFFCCCF6F8C6FDF8FF21
:10276000FFFFFFEBD5AA55FA0FE11F0000000000A4
:10277000000000E05FAA55AA55AAD56A351E0100DF
:1027800000003030F030303000C3333333C001F359
:1027900003030101F101F1313333333000F33333FB
:1027A00031C000C1C13333334303030303000101CC
:1027B00001C1313333C10000F23132313201020143
:1027C0000203010203F1323331C20303F333333323
:1027D0003303F333333333C303F333334383830399
:1027E0003333F3333303333332F23232023232F2E1
:1027F00032333301C1313130C000F0F0C00000F09D
:1028000000007F000000001F6060601F001F60600C
:102810001E601F007F6262626260007F020E1261B2
:102820000011116262621E00000000000000001F23
:102830006060601F00007F020202000000000000D4
:102840000000007F0C0C0C0300007F6262626000DD
:102850007F02020E1261007F6060100F0F00606047
:102860007F6060000000007F00000060607F6060AB
:1028700060001F6060601F007F7F01021C7F8284F8
:1028800084869FA1848693958486878883840E039B
:10289000151382848384090B168384051282830CAA
:1028A0003F84859C9E00828483850F848590911748
:1028B0008284838502848584851E181C282A0784C7
:1028C000858A8B0182848384080D061482830482A6
:1028D0008319828483851084858A8C1D828320825B
:1028E000831A2B83851B848584852C29110AD82380
:1028F00011241FBECFEFDAE0DEBFCDBF11E0A0E0B4
:10290000B1E0E2E3FFE602C005900D92A83CB107FA
:10291000D9F728E0A8ECB1E001C01D92AC31B207B4
:10292000E1F714E1C8E7D4E104C02197FE010E9459
:102930008237C737D107C9F70E94F6230C9497371F
:102940000C940000EF92FF920F931F93CF93DF93AD
:10295000E02E480F592F511DEB01C20FD11D20E170
:10296000F22E8417950764F5FB0177FF02C0F0E0B3
:10297000E0E09E01C134D10514F020E430E0E2171C
:10298000F307E4F480389105A0F48F0121E001FD04
:1029900024E000FD220F02FD2295087FF09ED00169
:1029A0001124A80FAF5EBB4F3C91EE2021F0322BDB
:1029B0003C933196DECF20953223FACF0196D1CFCA
:1029C000DF91CF911F910F91FF90EF900895E1E17A
:1029D000F4E0A0E0B8E000800EBC8111012C11975A
:1029E000A0FDFDCF0192B9F70DB4089580E00C94DD
:1029F000E7143FB7F89480910D0490910E04A091D4
:102A00000F04B091100426B5A89B05C02F3F19F004
:102A10000196A11DB11D3FBFBA2FA92F982F88275E
:102A2000BC01CD01620F711D811D911D42E0660F39
:102A3000771F881F991F4A95D1F708958F929F920B
:102A4000AF92BF92CF92DF92EF92FF926B017C0127
:102A50000E94F9144B015C01C114D104E104F1049A
:102A6000B9F00E94F914681979098A099B09683E2E
:102A700073408105910580F321E0C21AD108E10875
:102A8000F10888EE880E83E0981EA11CB11CE4CFEB
:102A9000FF90EF90DF90CF90BF90AF909F908F907E
:102AA000089520910104E091FF03F0910004CF010B
:102AB0000296909300048093FF03222319F08591DE
:102AC00094910895808191810895E1E7F0E08081FB
:102AD0008D7F808310929100469847981092FE0354
:102AE0000895CF92DF92EF92FF92CF93DF930E94EF
:102AF0005115811520E8920741F4DF91CF91FF90A5
:102B0000EF90DF90CF900C94651521E02093FE03A9
:102B1000813020E8920751F48091FC039091FD03ED
:102B2000909300048093FF030E94511597FD05C008
:102B30002091FB03222309F45BC02091FA032111A9
:102B400057C021E020930204EC01DF77209709F0C1
:102B500052C081E08093030446983FE9C32E3FE0D2
:102B6000D32EE12CF12CCAEFD0E0E091F803F091E4
:102B7000F9030995811103C081E0809303048091DA
:102B80000204882329F080910304882309F446C0B5
:102B900047980E945115009709F444C09C01DE013A
:102BA0000E943137DC01CB0129E0B595A7959795B7
:102BB00087952A95D1F7109290002AE020939100F2
:102BC000D0929900C09298008093040490930504D9
:102BD000A0930604B09307048091710082608093F3
:102BE0007100DF91CF91FF90EF90DF90CF9008952B
:102BF00010920204A9CF9E0150E040E060E472E42C
:102C00008FE090E00E94DD3669017A0181E0C81A08
:102C1000D108E108F10810920304A7CF4699B8CF74
:102C2000479AB7CF8FEF9FEFDC01C5CFF89487E7C6
:102C30008093000880930108A89588E18093600044
:102C400088E080936000FFCFBC0190E080E00C94AE
:102C50001E158FB18095807F669B88601C9B846069
:102C6000089580911608809317080E942916809372
:102C7000160880911608909117089C70A1F7982F5C
:102C80009C7089F3809317080E9429168093160878
:102C900008958091F70308952F923F924F925F928B
:102CA0006F927F928F929F92AF92BF92CF92DF925C
:102CB000EF92FF920F931F93CF93DF9300D01F9259
:102CC000CDB7DEB7822E912C9401280F391F37FD26
:102CD000ABC0803891050CF0A7C09B01200F311DBF
:102CE00037FDA2C0603471050CF09EC09B0177FFD8
:102CF00004C022273327261B370B27703327DB011D
:102D000077FD1796F3E0B595A795FA95E1F777FF6C
:102D100007C0119768E070E0FB01E21BF30B9F0115
:102D2000069506950695202E312CBD017695762FB9
:102D3000662777956795680F791F6F5E7B4F8A01CD
:102D4000AD01E8E0F0E03F01621A730A4F3FFFEF88
:102D50005F070CF459C06C011B821A822B01F0E84A
:102D60004F0E511CD7FC3EC04F3F540709F4A4C07E
:102D7000AA80BB80A60EB71EF501F081F983EA8117
:102D8000FB81E00FF11FFF24F394EF1063C0E49187
:102D9000022E01C0EE0F0A94EAF7F980FE2AF5012F
:102DA000F08221153105F1F047305105D9F0AA80A4
:102DB000BB80A40CB51CF501F081F983EA81FB818D
:102DC000E00FF11FFF24F394EF105CC0E491F0E0FA
:102DD000062C02C0F595E7950A94E2F7F980FE2AE1
:102DE000F501F082EA81FB813196FB83EA83FFEFF4
:102DF000CF1ADF0AEA81FB81E815F9052CF4E0E837
:102E0000CE16D10409F0AECF4F5F5F4F60587F4FB1
:102E1000080D191DFA01EA1BFB0BE215F30524F45A
:102E20004830510509F092CF0F900F900F90DF912D
:102E3000CF911F910F91FF90EF90DF90CF90BF90B7
:102E4000AF909F908F907F906F905F904F903F904A
:102E50002F900895E1100DC0E491F0E0022E02C021
:102E6000EE0FFF1F0A94E2F7E095F095F980FE223D
:102E700096CFE491022E01C0EE0F0A94EAF7F98092
:102E8000FE268DCFE1100DC0E491F0E0062C02C0CB
:102E9000F595E7950A94E2F7E095F095F980FE2222
:102EA0009FCFE491F0E0062C02C0F595E7950A94D7
:102EB000E2F7F980FE2694CF2115310509F077CF8E
:102EC00091CF089520E830E002C0359527958A9586
:102ED000E2F78091D50390E082239323892B29F494
:102EE0008FEF809300012093D5030895EF920F9305
:102EF0009FE18902F0011124EA50FD4F42814F30D9
:102F0000D1F02381348112161306ACF498E44902FF
:102F1000A001112449515F4E682F617098E1690248
:102F2000B00111248595E12C08E128E18902C00156
:102F300011240E944C160F91EF900895EAEDF2E0F3
:102F40008FEF8083818382838383349692E0E63F90
:102F5000F907B9F708959C0190E02115310531F08A
:102F6000822F8170980F36952795F7CF923040F0D9
:102F7000923041F0953040F0993040F084E008956F
:102F800080E0089581E0089582E0089583E0089547
:102F90009C0190E067FD09C02115310549F037FD1E
:102FA00061509F5F220F331FF5CF8FEF890F089578
:102FB00080E00895E62FE695E80FF92FF11D849142
:102FC00060FD02C082958F708F700895CF92DF925E
:102FD000EF92FF921F93CF93DF937C01FC01339616
:102FE000949180910C018823E1F010E080E8C82ED4
:102FF000D12CC62FD0E0612FC7010E94DA178F3085
:1030000059F0960102C0359527958A95E2F7C901D6
:103010008C239D23892B99F01F5F163061F781E087
:103020000FC0E0E8F0E002C0F595E7956A95E2F799
:10303000892F90E0E823F92381E0EF2B09F480E069
:10304000DF91CF911F91FF90EF90DF90CF90089587
:103050000F93CF938823B1F0C82F00E0282F40E8CA
:1030600070E060E090E080E00E94A21460E470E014
:103070006C1B7109C7FD73952C2F40E890E080E030
:103080000E94A214CF910F9108950F931F93CF9395
:10309000DF93C82FD09114010D2F10E0D8011197A4
:1030A00027ED33E00E94903722E630E040E050E028
:1030B0000E94DD36205F3F4FC33044F5EC2FCC0F2C
:1030C000FF0BEF56F04FE4914E2F50E000E0E091FF
:1030D0001101F09112014E0F5F1F509312014093A6
:1030E0001101E09113010E0F00931301241735070E
:1030F00024F43093120120931101D01710F4D093CF
:103100001301DF91CF911F910F910895C6304CF4B8
:10311000EC2FCC0FFF0BEF56F04F049150E040E046
:10312000D6CFC63031F4A901559547951595079529
:10313000CECFA901C73059F200E0F0CFE1E1F7E0CE
:10314000119288E0E131F807D9F70895E1E9F7E055
:10315000119288E0E131F807D9F708958091CD0107
:10316000E82FF0E0E752FE4F9EE38F3F19F0919376
:103170008F5FFBCF1092CD018091E7038E7F80930C
:10318000E7030895EF920F93CF938E3371F09091F0
:10319000E70390FF0EC09091CD01E92FF0E0E752D8
:1031A000FE4F80839F5F9093CD01CF910F91EF9061
:1031B00008958F3351F48091D3038093E403809179
:1031C000E303885F8093E303F0CFC091E4038E3282
:1031D000A9F46091E303062E000C770B92E0E92E30
:1031E00008E025E048E75FE08C2F0C2E000C990BDF
:1031F0000E944C16CA5FC093E403D7CF8823D1F353
:103200008150990B25E0289FA001299F500D112482
:103210004956514F6091E303062E000C770B82E074
:10322000E82E08E0E1CFCF93DF93C091D802D09190
:10323000D902C436D105DCF0CE0164E670E00E940C
:103240006E37CB016AE070E00E946E37855E0E94A7
:10325000C2182AE030E0CE01B9010E946E37CB01DE
:10326000B9010E946E37855E0E94C21803C0CA3041
:10327000D1057CF7CE016AE070E00E946E37855E72
:103280000E94C21887E0DF91CF910C94C218CF93AF
:10329000DF93EC0197FF03C0D195C195D109C436E6
:1032A000D105DCF0CE0164E670E00E946E37CB0100
:1032B0006AE070E00E946E37855E0E94C2182AE0C4
:1032C00030E0CE01B9010E946E37CB01B9010E94F6
:1032D0006E37855E0E94C21803C0CA30D1057CF7E4
:1032E000CE016AE070E00E946E37855EDF91CF917B
:1032F0000C94C218CF93DF93C4E0D1E089910E946F
:10330000C21881E0CC30D807C9F7DF91CF9108957A
:103310000F931F93CF93DF93162F082FEC01FE011D
:1033200084910E94C21821968C2F801B8117B8F3BC
:10333000DF91CF911F910F910895863011F40C9475
:103340007A199FE18902F0011124EA50FD4F68E0EB
:10335000808191810C948819EF92FF920F931F93B3
:10336000CF93DF9381E08093D3038BE2E82E81E05B
:10337000F82E04EE14E2D0E0C0E08D2F880F8076A6
:103380008F5F8093E4038D2F8870805D8093E303CB
:10339000F70181917F01882351F064E0C8010E9408
:1033A0008819F70131978081855E0E94C218C33069
:1033B00019F48FE30E94C218CF5FD85F0C5F1F4FD4
:1033C000C830D9F6DF91CF911F910F91FF90EF9008
:1033D0000895EF92FF921F93CF93DF93009741F4EC
:1033E0008BE1DF91CF911F91FF90EF900C94C21869
:1033F000C0E097FF04C0919581959109C1E02AE052
:10340000E22EF12CB7010E946E37162FD72F855E62
:103410000E94C2188091E4038C508093E403812FB2
:103420009D2F009779F7CC2311F085E2DACFDF9159
:10343000CF911F91FF90EF9008950F931F93CF931B
:103440008B01C091E4032CE02C0F2093E4030E9435
:10345000E919CE5EC093E4038CE20E94C218809109
:10346000E403845F8093E403C801CF911F910F911F
:103470000C94E9192091CA019091CB01922381E02B
:1034800009F480E030E0359527952093CA01232B7D
:1034900079F4E091C801F091C9013196F093C90126
:1034A000E093C801E491E093CB0190E89093CA01C6
:1034B00008951F93CF93DF93182F90E080E0EC01E5
:1034C000CC0FDD1F0E943A1A8C0F9D2F911D1150B9
:1034D0001116ACF3DF91CF911F910895CF93DF9335
:1034E000D82F80E01D163CF4C82FCC0F0E943A1A4A
:1034F0008C0FD150F7CFDF91CF9108959093C901F0
:103500008093C801FC0184918093CB0180E890E016
:1035100002C0959587956A95E2F78093CA01089550
:10352000EF92FF920F931F93CF9360E00E947E1A59
:1035300088E00E946E1AC82F0EE718E2E09035016D
:10354000F090360181E00E946E1AF701E80FF11D3C
:10355000E491EF77EE0DFF2DF11DF0933601E0932E
:103560003501849187FDEACF109336010093350130
:103570000E94C218C15011F7CF911F910F91FF9077
:10358000EF900895CF92DF92EF92FF920F931F93E7
:10359000CF93DF93082F10E09FE1C92EC09E9001CA
:1035A000C19E300D1124A9014A505D4F7A01FA01E4
:1035B00062836F3009F461C0F5E16F02E00111240C
:1035C00060E0CE01815D9C4E0E947E1AC95DDC4E9A
:1035D000F701D183C08386E00E946E1A90E0F70164
:1035E000908787838AE00E94591AF7019683858322
:1035F000948383830C9DE0011124AE014F5F5C4FE7
:103600006A0184E0F82E88E00E946E1A90E0F601CC
:10361000819391936F01FA94F110F5CF80E10E94AC
:10362000591A2FE1209FF001219FF00D1124EA503B
:10363000FD4F948B838BF12CE12C83E00E946E1A5A
:10364000F701EC0FFD1FEA50FD4F858BFFEFEF1ADE
:10365000FF0A48E0E416F10481F788E00E946E1A40
:103660009FE1909FE001919FD00D1124CA50DD4F42
:103670008D8F88E00E946E1A8E8FDF91CF911F91FF
:103680000F91FF90EF90DF90CF9008953F924F926F
:103690005F926F927F928F929F92AF92BF92CF92E2
:1036A000DF92EF92FF920F931F93CF93DF930091DE
:1036B000D6031091D703F8018491807FC0E0803F4A
:1036C00009F0FBC08FE08093F8028093360380936B
:1036D000550361E0C8010E94DA17F82EF6E18F0267
:1036E000E001112460E0CE0189529C4E0E947E1AB6
:1036F000C153DC4ED0931603C0931503F092170309
:1037000080E10E94591A90931B0380931A039093AF
:1037100019038093180388E00E946E1A90E090933A
:103720001D0380931C03C0E2D3E088E00E946E1A60
:1037300090E08993999383E0C832D807B1F780E18C
:103740000E94591A9093290380932803CAE2D3E078
:1037500083E00E946E1A899393E0C233D907C1F7C0
:1037600088E00E946E1A8093320388E00E946E1AED
:103770008093330362E0C8010E94DA17682F84E067
:103780000E94C21A63E0C8010E94DA17682F85E020
:103790000E94C21A80E18093B2038091110190913E
:1037A00012019093B4038093B303C0911401D0E04D
:1037B0005E01E1E0AE1AB10827ED33E0D5010E94C9
:1037C000903722E630E040E050E00E94DD36205F96
:1037D0003F4F3093B6032093B5038091130190E0DF
:1037E0009093B8038093B703D093BA03C093B903FF
:1037F00080EFE82E8DE1F82E05E111E09BEBC92E5C
:1038000093E0D92E88248A94912C32E6432E512CB1
:10381000612C712CF701C491D0E0F80131908F0137
:1038200094012C1B3D0BD5010E948837A301920106
:103830000E94DD362C0F3D1F230D311DF601219313
:1038400031936F01FFEFEF1AFF0A81E0093118078A
:1038500009F780912101909122019093C4038093F4
:10386000C303EBE2F1E0A5ECB3E083E391E0219147
:103870002D938E179F07D9F71092CD031092CE0388
:103880001092D4031092D2031092D1031092D0035D
:103890001092CF03DF91CF911F910F91FF90EF9086
:1038A000DF90CF90BF90AF909F908F907F906F9060
:1038B0005F904F903F900C949E176C2FC8010E9410
:1038C000DA17682F8C2F0E94C21ACF5FC630A9F773
:1038D00061CF0F931F93CF93DF93809164008E7F0E
:1038E0008093640080917A00806480937A00809154
:1038F0007A0086FDFCCFC0917800D09179000E94BB
:10390000F914AB01BC01CE01B0E0A0E0DC019927C5
:1039100088278C019D01040F151F261F371FC90121
:10392000B801209164002160209364006115710545
:103930008105910531F0DF91CF911F910F910C948A
:10394000BE36DF91CF911F910F910895FC012FE3B7
:10395000892B31F0611106C0329624912695269567
:10396000822F0895613069F432962591349132277F
:103970002327322794E0369527959A95E1F72F7300
:10398000EFCF623061F433962591349132272327AB
:10399000322786E0369527958A95E1F7F0CF349661
:1039A0002491EDCF1F93CF93DF93162FEC01219637
:1039B0006F3399F0112399F0FE0185919491982726
:1039C000892798270E94AB1728E0829FC001112405
:1039D0000596C80FD91F1150EDCFD0E0C0E0CE0141
:1039E000DF91CF911F9108956F927F929F92AF9236
:1039F000BF92CF92DF92EF92FF920F931F93CF93DC
:103A0000DF930091DA031091DB0360E0C8010E94AC
:103A1000A61CE82ECEECD1E0898362E0C8010E94AA
:103A2000A61CB82E8B8380910D018C8363E0C801A6
:103A30000E94A61C982E8D8361E0C8010E94A61CDE
:103A4000F82E8F830091E0031091E1036E2DC801E1
:103A50000E94D21C3C0162E00E94A61CC82E63E0BA
:103A6000C3010E94A61CE82E6F2DC8010E94D21C23
:103A70003C0162E00E94A61CD82E63E0C3010E94B4
:103A8000A61CF82E6B2DC8010E94D21C5C0160E0C0
:103A90000E94A61C8C21888361E0C5010E94A61C9F
:103AA0008D218E83692DC8010E94D21C8C0160E09B
:103AB0000E94A61C8E218A8361E0C8010E94A61C78
:103AC0008F218887DF91CF911F910F91FF90EF9009
:103AD000DF90CF90BF90AF909F907F906F900895B0
:103AE000A1E0B1E01B962C911B9730E0220F331F11
:103AF000F901E953FF4E859194919093E1038093EE
:103B0000E003F901E955FF4E259134913093D80136
:103B10002093D701FC01249123702093CC011C96A3
:103B20006C910E94D21C9093DB038093DA030C9477
:103B3000F41C2F923F924F925F926F927F928F92DE
:103B40009F92AF92BF92CF92DF92EF92FF920F932C
:103B50001F93CF93DF93CDB7DEB72D970FB6F894B1
:103B6000DEBF0FBECDBF20910E0180EF2802900175
:103B70001124285C3F4F9091DD03A901490F511D8D
:103B800097FD5A955987488720910F012802C00157
:103B9000112448963091DC03FC01E30FF11D37FD41
:103BA000FA95FB87EA8725300CF401C1F8E0FB8326
:103BB00013E0812F90E0AC0142535E4F5F834E8350
:103BC000812F63E00E94403750E8959FC001112487
:103BD000E885F985E80FF91FFA83E9832F01F0E8FA
:103BE0004F1A51082BEA129F812D1124869530E837
:103BF000839F100111244A855B85240E351EC10167
:103C0000805891099D838C83EE81FF818190FF8391
:103C1000EE83682D8091E0039091E1030E94D21C15
:103C20005C01FC01259134913227232732273D87FF
:103C30002C87C9010E94AB17F82E60E08C859D850A
:103C40000E94C817982E60E0C50105960E947E1A52
:103C5000A114B10409F4912CCC80DD803201A114AF
:103C6000B10459F0FF2049F08F2D0E946E1A682F81
:103C70008C859D850E94C817982E4091CC0130E11B
:103C8000439FA0011124490D511D97FC5A9575E0E1
:103C9000440F551F7A95E1F740545A4EEE24E394B1
:103CA00000E120E1B601C3010E944C1640E1640E20
:103CB000711C89819A818615970589F690E1C90E54
:103CC000D11C2C143D0451F6E091D701F091D8019C
:103CD00064905F012FEFA21AB20A712C912C671425
:103CE00009F469C0F501459154915427452754279B
:103CF0005A834983F50132963490CA01892F992756
:103D000086958F7399278815990509F04BC0CA01CC
:103D100087709927039709F045C0CA0123E096955B
:103D200087952A95E1F7877050E1859F60011124FE
:103D30008C819D81C80ED91E29813A8146E0369535
:103D400027954A95E1F7277080E1289FA00111246B
:103D5000440D551D5A83498300E020E140E1B6013E
:103D600089819A810E94A21480911D0190911E0167
:103D7000A0911F01B091200104C0B695A795979519
:103D800087953A94D2F740E85BE180FF02C040EAB1
:103D90005BE1EE24E39400E120E1B60189819A81A0
:103DA0000E944C16739454E0A50EB11C98CF25E0E8
:103DB0002B8310E0FECE1F5F8B81811708F000CFB0
:103DC0004091100190E24902A0011124495D5F4E2B
:103DD000E12C00E120E168E170E088E390E00E94DE
:103DE0004C1640911001E0E24E02A0011124495509
:103DF000504FEE24E39420E168E170E088E390E026
:103E00000E944C162D960FB6F894DEBF0FBECDBFA4
:103E1000DF91CF911F910F91FF90EF90DF90CF90A6
:103E2000BF90AF909F908F907F906F905F904F90DA
:103E30003F902F900895AF92BF92CF92DF92EF9272
:103E4000FF920F931F93CF93DF93E091D701F091EF
:103E5000D8011491C0910D0120910E0160910F01C4
:103E6000DF011196882351F09091100191114BC000
:103E7000615027FF55C0C091D10127E090E0D0E00C
:103E800030E070E0911709F493C2FD01459154911F
:103E9000542745275427FD010491E02FE078E813CB
:103EA00084C2FA01EF2FFF27E695EF73FF27EC1787
:103EB000FD0709F07AC2FA0106E0F695E7950A9542
:103EC000E1F7E770FF27E217F30709F06EC2FA0186
:103ED00003E0F695E7950A95E1F7E770FF27E61707
:103EE000F70709F062C29D012E5F3F4F47704230D5
:103EF00009F435C140F5442309F475C0413009F493
:103F0000EBC081E056C2913011F46F5FB2CF9230B6
:103F100011F42150AECF933009F0ABCF2F5FA9CF72
:103F2000283021F4C091D30120E0A8CF67FF04C05E
:103F3000C091CF0167E0A2CF683009F09FCFC09158
:103F4000D50160E09BCF443009F415C208F45CC190
:103F50004530B9F6FD013396D491F901C4918091B1
:103F600033018D2371F610E091E1E92E98E0F92EEE
:103F70000E94991DE1E1F4E08191DF0111978095A4
:103F80008C93EE16FF06C1F7812F0E94281881E05E
:103F90000E94E7141F5F113259F72C2F30E0220FD7
:103FA000331F2B5D3A4E3093D7032093D6030E94E4
:103FB000461B8091E8038093D90382E08093E80355
:103FC00086E08093E6031092DF031092DE031092E6
:103FD000E5031092E2031092D803A0913301DA2B8B
:103FE000D09333018ECFF901C591D491DC27CD2731
:103FF000DC277E01EF2CFF24E2941FE0E122F70191
:10400000EE53FB4EE491809133018E23E81789F043
:1040100081E08093E40388E38093E3030E94A61881
:1040200085EB94E10E94901A0E94F6140E943116CA
:1040300068CFC0900C01D12C10E0CE14DF0471F0D9
:104040000E94651510E01F5F0E94991D812F0E943C
:10405000281881E00E94E7141132A9F7E0920C01C0
:10406000CE01B6E096958795BA95E1F78F73809368
:104070000D01CE01D3E096958795DA95E1F787702B
:1040800080930E01C770C0930F010E94701DCE1463
:10409000DF0409F436CFE091E003F091E103E4910D
:1040A000F0E0A5E0F595E795AA95E1F7E093E60342
:1040B0001092DF031092DE0311500E94991D812F90
:1040C0000E94281881E00E94E7141116ACF30E94A8
:1040D000991D1092D80315CFC0911401D0E0DE01D4
:1040E000119727ED33E00E94903722E630E040E060
:1040F00050E00E94DD36205F3F4F8091110190918A
:104100001201281B390B80911301C81BD109CC0F58
:10411000DD1FCC0FDD1FC20FD31FD093D902C09378
:10412000D8028091E7038F618093E7038CED94E1DF
:104130000E94901A0E9413198FE30E94C21882ED08
:1041400094E10E94901A0E94AE181092E20310921D
:10415000E50388E08093D5038093E803D2CEF9018C
:1041600024912093D503C22FD0E0FE01E951FB4EEC
:10417000E491F0E0F093D902E093D8028091E70354
:104180008F618093E70383EE94E10E94901ACE0141
:10419000E3E0880F991FEA95E1F768E08C5F9A4D9C
:1041A0000E9488198091CD012EE39FEF980FE82F90
:1041B000F0E0E852FE4F3081311107C0E92FF0E006
:1041C000E752FE4F2083892FF0CF8093CD0188E402
:1041D00095E20E94901A80E00E94C2180E94131972
:1041E0008FE30E94C218FE01EE0FFF1FED5FF14E3C
:1041F000859194910E94901A0E94AE181092E20349
:104200001092E50388E0A8CFFD013396D491F9011F
:104210002491C12CD12C7601C39404C0CC0CDD1C9C
:10422000EE1CFF1C2A95D2F78091E70389608093EA
:10423000E70380911D0190911E01A0911F01B09193
:1042400020018C219D21AE21BF21892B8A2B8B2B14
:10425000E9F088E095E10E94901A80911D0190910B
:104260001E01A0911F01B09120018C299D29AE292A
:10427000BF2980931D0190931E01A0931F01B0934D
:1042800020010E94AE181092E2033BCED7FF56C029
:104290008D2F8770C0913401A82EB12C8501000F9D
:1042A000111F83E095E10E94901AD6FF20C0C5013E
:1042B000880F991F880F991F64E08C519B4D0E94B5
:1042C00088198CEF94E10E94901A23E030E002C03C
:1042D000220F331F0A95E2F780912101909122016C
:1042E000822793279093220180932101B6CFF80172
:1042F000EC50FB4E859194910E94901AF501EF5F6E
:10430000FE4F2C2F30E0002E02C0359527950A94E1
:10431000E2F723702F5F922F990F990F290F84894D
:10432000280F248B21E030E001C0220F0A95EAF724
:1043300080913401820F809334018FCFCD2FD0E054
:104340008E010F5F1E4FF80182A58F5F82A78FEE4F
:1043500094E10E94901ACE01880F991F880F991F2F
:1043600064E08C519B4D0E948819F80182A5855EFE
:104370000E94C21872CFFD0133968491F9012491F5
:104380009091E70399609093E703A0913301A82BE4
:10439000A0933301E22FF0E0EE0FFF1FEF5EFA4E25
:1043A000859194910E94901A6CCF14969F5F6ACD6C
:1043B00080E0DF91CF911F910F91FF90EF90DF9000
:1043C000CF90BF90AF900895BF92CF92DF92EF92BF
:1043D000FF920F931F93CF93DF938C01D62EB42EB1
:1043E00021110BC0BA948FEFD81689F098E080E0C5
:1043F000D91210C081E0D12C0DC0213011F4B3943A
:10440000F2CF223011F4DA94EECFD394ECCF81E0E6
:1044100037E0D32E9FEFB91609F45AC098E0B916C9
:1044200009F459C0882361F0622FC8010E94A61CBC
:10443000682F8091E0039091E1030E94D21C8C01CF
:1044400080E00115110509F439C0F801E590F490F8
:10445000FE24EF24FE24E091CC01F0E0EE0FFF1FDC
:10446000E956F04FC591D491C7010E94AB17C82EF1
:1044700088E0B89EB00111246D0D711DC69E802D7F
:104480001124682F677086958695869590E005962D
:10449000800F911F0E947E1A8C2D0E946E1A682F29
:1044A000C7010E94C8172FE030E0281B310902C065
:1044B000D695C7952A95E2F78C2F8170DF91CF9121
:1044C0001F910F91FF90EF90DF90CF90BF900895D4
:1044D00097E0B92EA9CFB12CA7CFAF92BF92DF92B0
:1044E000EF92FF920F931F93CF93DF939091D80396
:1044F0009A300CF487C0D82E0E946F3620EA36E836
:1045000041E050E00E94DD36683A71468105910530
:104510000CF078C00DE314E125EBA22E24E1B22EBD
:104520007801D0E0C0E06D2DC7010E94E61781112F
:10453000219684E0E80EF11CAE14BF04A1F7209789
:1045400009F460C00E946F369E01DD0F440B550BCD
:104550000E94DD36EB01F12CE12C6D2DC8010E948B
:10456000E61781112197CF3FDC0709F455C08FEF83
:10457000E81AF80A0C5F1F4F2EE1E216F10469F702
:1045800010E091E1E92E98E0F92E0E94991DE1E1F9
:10459000F4E08191DF01119780958C93EE16FF0670
:1045A000C1F7812F0E94281881E00E94E7141111A1
:1045B00006C064EF71E080E090E00E941E151F5F6E
:1045C000113219F7CC0FDD1FCC0FDD1FC35CDB4EA2
:1045D000D093D703C093D6030E94461B8091E80373
:1045E0008093D90382E08093E80386E08093E6031A
:1045F0001092DF031092DE031092E5031092E203A3
:104600001092D803DF91CF911F910F91FF90EF90FF
:10461000DF90BF90AF900895E701B2CFFF920F9364
:104620001F93CF93DF9301E011E0C0E1D0E0F801E8
:10463000F1908F01CE010E94C736F81621F06F2D40
:10464000CE010E94CF362196C434D10581F7DF9187
:10465000CF911F910F91FF9008951F920F920FB667
:104660000F9211242F933F938F939F93AF93BF93F8
:104670008091090490910A04A0910B04B0910C045C
:104680003091080423E0230F2D3758F50196A11D22
:10469000B11D209308048093090490930A04A09309
:1046A0000B04B0930C0480910D0490910E04A09122
:1046B0000F04B09110040196A11DB11D80930D044B
:1046C00090930E04A0930F04B0931004BF91AF9188
:1046D0009F918F913F912F910F900FBE0F901F9040
:1046E000189526E8230F0296A11DB11DD2CF1F9267
:1046F0000F920FB60F9211242F933F934F935F9316
:104700006F937F938F939F93AF93BF93EF93FF9399
:104710008091040490910504A0910604B0910704CF
:10472000892B8A2B8B2B09F440C0809103048111C3
:104730000BC088B190E4892788B98091020488234E
:1047400019F088B1805888B98091040490910504CB
:10475000A0910604B0910704181619061A061B0644
:104760009CF48091040490910504A0910604B091FA
:1047700007040197A109B1098093040490930504EB
:10478000A0930604B0930704FF91EF91BF91AF91FE
:104790009F918F917F916F915F914F913F912F9159
:1047A0000F900FBE0F901F9018950E947115ECCFBF
:1047B000E1E1F8E01582168280E18783148213829A
:1047C000118686EC91E09183808389E496E1909351
:1047D000F9038093F80380E090E89093F6038093C8
:1047E000F50346983E9A47983F9A0895CDB7DEB7AD
:1047F0002997DEBFCDBF21E02093E0001092E200B8
:104800001092E10080E28093D8001092D70080914E
:104810006500806880936500789484B5826084BD6B
:1048200084B5816084BD85B5826085BD85B58160B4
:1048300085BD80916E00816080936E001092810032
:1048400080918100826080938100809181008160ED
:1048500080938100809180008160809380008091AE
:10486000910082608093910080919100816080939B
:104870009100809190008160809390008091C100B0
:1048800084608093C1008091C10082608093C100E8
:104890008091C10081608093C1008091C3008160DC
:1048A0008093C3008091C00082608093C00080919B
:1048B000C20081608093C20080917A0084608093FE
:1048C0007A0080917A00826080937A0080917A00E9
:1048D000816080937A0080917A00806880937A006A
:1048E000559A209A5D9A289A8C9A84988AE090E04A
:1048F0000E9424167C9B0E94161681EC80937C00FB
:1049000085B1806F85B984B1877E84B984B1876EA3
:1049100084B95E9A5F988AB1806D8AB9769A6E98EA
:1049200081B3806F81BB899880B38D7080BB80E537
:104930008CBD31E03DBD85E090E00E9424165F9A79
:1049400085E090E00E9424165E985C98EFE2F5E125
:1049500084918EBD00000DB407FEFDCF319645E178
:10496000EC33F407A9F75C9A81E8809364008091A6
:1049700065008160809365000E94291682FF46C011
:104980002D980E94291684788438D9F42D9A88ECC1
:1049900090E00E9424162F9882E090E00E94C73693
:1049A0008F3F29F06FEF82E090E00E94CF3684EFD6
:1049B00091E00E9424162F9A0E9429168478843848
:1049C000D9F30E94291684718431D9F42D9A88EC88
:1049D00090E00E9424162E9882E090E00E94C73654
:1049E000882329F060E082E090E00E94CF3684EFD7
:1049F00091E00E9424162E9A0E9429168471843117
:104A0000D9F388EC90E00E942416B6CF2D9A82E06C
:104A100090E00E94C736882369F13E9A3F9A81E070
:104A20008093F70381E2809318080E94F61432E61F
:104A3000432E512C612C712C43E0242E312C11E09B
:104A40002FB7F8948091090490910A04A0910B0467
:104A5000B0910C042FBF20911908E82FE21B2E2FD4
:104A6000F0911A08F983FF2351F0E0931B0810928C
:104A70001A08E6CF1092F7033E983F98D3CF3091B3
:104A80001808E31740F42F5F2317D0F621E023BF67
:104A9000889513BED5CF10931A088093190880917A
:104AA00014089091150801969093150880931408A6
:104AB00080911608809317080E9429168B83809393
:104AC0001608E091E803EA3008F08DC1F0E0E559FE
:104AD000FA4D0C94823775253326F6270F30913026
:104AE0004931BD32DA322733C2333091170830955D
:104AF0004B8134233983EE24E39400E32EE74AE824
:104B000055E262E070E081E090E00E944C160E9465
:104B1000A6188091E5038B83882381F0813081F092
:104B20009EE7823081F080E0E82FF0E0EF56F84F0A
:104B30002FEF981750F021938F5FFBCF92E1F3CFC7
:104B40009EE48EE1F1CF8AE5EFCF1093E40388E392
:104B50008093E3038DE795E20E94901A998195FF77
:104B60000BC0EB818E2FEE0F990B0296B1010E94C4
:104B70006E378093E50337C1F981F6FF06C02B81BC
:104B8000822F220F990B0196F1CF398132FF2BC171
:104B90004B8141110EC00E94701D89E08093E80393
:104BA0001092E5031092E2030E94691C1092E50343
:104BB0001AC18B81813009F04EC080E190E00E94E3
:104BC000C7368335D1F581E190E00E94C7368C3439
:104BD000A1F582E190E00E94C736813371F521E0B2
:104BE000E22E21E0F22EE0E1F0E0FA83E983898110
:104BF0009A810E94C736F70181937F0129813A810A
:104C00002F5F3F4F3A8329832434310581F70E9477
:104C1000701DE091E003F091E103E491F0E095E094
:104C2000F595E7959A95E1F7E093E6031092DF0397
:104C30001092DE031093E803B3CF8AE08093E4037D
:104C40000E94A61882E795E20E94901A0E94F6142C
:104C50000E943116ABCF3B81323009F0A7CF86E0FE
:104C60008093E803A3CFD09017080E94991D8091EC
:104C7000E70383FDB8C08091DD03811194C1809169
:104C8000DC03811193C14B8145FF27C182E08093F2
:104C9000100122E040910F0160910E018091DA0332
:104CA0009091DB030E94E421882341F080910E0162
:104CB000815080930E0180EF8093DD038091DD03AE
:104CC00087FF77C18E5F8093DD038091DC0387FFD0
:104CD00075C18E5F8093DC0380910E018F3F09F0D8
:104CE00072C187E080930E0162E08091DA039091B7
:104CF000DB030E94A61C80930D01682F8091E003C6
:104D00009091E1030E94D21C9093DB038093DA031D
:104D10000E94F41C80910F018F3F09F05BC187E076
:104D200080930F0160E08091DA039091DB030E9491
:104D3000A61C80930D01682F8091E0039091E10300
:104D40000E94D21C9093DB038093DA030E94F41C30
:104D50004981442309F447C08091DD03811143C098
:104D60008091DC0381113FC08091D8038F5F8093D5
:104D7000D80380E00E941B1F811135C0E0910C0117
:104D8000E1112FC1C0900F01D0900E01E090DA0325
:104D9000F090DB03F7018591949198278927982754
:104DA0009A8389830E94AB17082FE8E0CE9EC0014A
:104DB00011248D0D911D089F802D1124682F67707F
:104DC00086958695869590E005968E0D9F1D0E948E
:104DD0007E1A802F0E946E1A682F89819A810E9404
:104DE000C8170E946D224091E703498341FF1CC010
:104DF000E1E9F6E087EB96E011928E179F07E1F765
:104E00008EE18093E40388E28093E30387E00E94CD
:104E1000C2188091E4038C508093E40380911B01BD
:104E200090911C010E94E919898182FF21C0809123
:104E3000E5033DE62BE5813011F43FE723E7EBEE98
:104E4000F6E08AE590E0821728F091E0381708F440
:104E500090E0919591938F5F8138A1F78CE58093D5
:104E6000E40388E28093E3038CE395E10E94901AC7
:104E7000998193FD02C00C94DA34E0911708E9831C
:104E8000D0901608F091E203FB831092E40388E3CC
:104E90008093E3030E949E1889EDE82E81E0F82EAE
:104EA00000E02B81201711F40C94CC34F701819190
:104EB0007F018F3311F00C94C834E1E9F7E080E012
:104EC0009081DF01A058B1099C9311928F5F8038C7
:104ED000B9F71092E4030F5FE4CF8B8186FF18C00F
:104EE00083E08093100123E040910F0160910E0157
:104EF0008091DA039091DB030E94E421882309F476
:104F0000DDCE80910E018F5F80930E0180E1D4CEC3
:104F10009B8197FF19C01092100120E040910F0172
:104F200060910E018091DA039091DB030E94E421ED
:104F3000882309F4C3CE80910F01815080930F0123
:104F400080EF8093DC03BACEEB81E4FF17C01093AF
:104F5000100121E040910F0160910E018091DA0370
:104F60009091DB030E94E421882309F4A7CE80916D
:104F70000F018F5F80930F0180E1E3CFD094FB811D
:104F8000DF22D2FE04C080E80E941B1F97CED3FE12
:104F900095CE1093D90383E08093E8031092E20347
:104FA0001092E5038BCE21E0298388CE31E039834E
:104FB00085CE882309F489CE825085CE882309F4D2
:104FC0008BCE825087CE883009F0A4CE10920E018D
:104FD00063E08BCE883009F0BBCE10920F0161E008
:104FE000A2CEF0E0EE59FA4D8491FBCE81E194E03F
:104FF00026E03FEFFC0148E431934150E9F7FC0122
:10500000E85BFF4F48E455E540FD5AEA51934F5F96
:105010004035C9F7215080589F4F2111EBCFE091C7
:10502000D603F091D703E491B0900001E07FE03F18
:1050300009F09EC0B6FE16C0809118039091190326
:10504000892B81F060911703643009F084C0E12C52
:1050500000E328E44FE25EE170E060E090E080E091
:105060000E944C16B3FE03C084E00E947617B2FE85
:1050700003C085E00E947617B1FE13C08091110134
:10508000909112011816190664F4EE24E39408E1D5
:1050900025E14FE554E270E060E080E590E00E9499
:1050A0004C1689E68093E4031092E3038CE00E949F
:1050B000C2188091E403845F8093E403809114011B
:1050C00090E00E94E91981E58093E40398E19093D0
:1050D000E3038093D3030E947A198FE30E94C218DE
:1050E00088E00E94C2186091B5037091B603809168
:1050F0001101909112010E941D1A8FE30E94C218A3
:105100008DE00E94C2186091B9037091BA0380913A
:10511000130190E00E941D1A8091140890911508C7
:10512000B1010E945A37892B29F48091D503B82602
:10513000B0920001E091D403E73008F054CEF0E0E3
:10514000EC55F74D0C948237D3287029092A2D2A63
:10515000A32A922BCF2E20E231E06203A001639FAD
:10516000500D11244152504EE12C00E320E374CF46
:10517000D12CC12CEB2CF12C80E890E00C2C02C03F
:10518000959587950A94E2F78E219F21892B19F036
:105190008C2D0E947617FFEFCF1ADF0A26E0C21689
:1051A000D10451F769CF30911708309580911608D6
:1051B00038233B834091E5034983E42FE170EA5FA4
:1051C0009AE286E0423034F09EE480E3443014F00A
:1051D00098E784E520E8E29FF0011124E80FF11D33
:1051E000EF5EFB4F2FEF981718F021938F5FFBCFE7
:1051F00087E08093E40300E30093E3038093D30309
:1052000085EB94E20E94901A3B8132FF50C00E94CD
:105210009E1749814093F20286E08093F30288E072
:105220000E946217898181110CC01093D4031092DF
:10523000E5038091E50366E00E944C379093E50317
:10524000D2CD9981923041F49093D4039093D903B5
:1052500084E08093E803EBCFE981E33019F4E09335
:10526000D403E5CFF981F530F1F4E091D603F09164
:10527000D703E491E07FE03FB1F40E949E181092C2
:10528000E4030093E3031092D3038EE994E20E94B7
:10529000901A0E94F6140E9431168FEF8093F2024A
:1052A0001092D403C4CF84E08093D403C0CF8B8109
:1052B000807931F0298131E023272093E503B9CFAC
:1052C0004B8145FF05C089818C5F8093E503B1CF99
:1052D0009B8196FFAECFE981EE5FE093E503A9CF16
:1052E000C0901708C09480911608C8221093E40358
:1052F00080E38093E3031093D3038BEC94E20E944A
:10530000901AD090E5034D2D0D2C000C550B20E686
:1053100034E090E080E061E08417950709F060E0F8
:105320006195F9017FE461937F5F7038E1F7019641
:1053300020583F4F8630910571F780E58093E40354
:105340001092E3038093D30326EF32E03A8329835C
:10535000790100E0B12CF70182818F3089F08381DF
:1053600094811816190664F48B2D0E949D198FE301
:105370000E94C218D01203C08B2D0E9462170F5FCB
:10538000B394FFE1EF0EF11C26E0B212E4CFC3FEAE
:1053900010C01092E5031092D40388E00E946217B7
:1053A0008091E503082E000C990B602F000F770BFE
:1053B000DECBC2FE23C03091F30200E020E0E981A1
:1053C000FA8182818F3049F0838194811816190601
:1053D00024F4D01201C0322F0F5F2F5F89819A8190
:1053E0004F969A838983263051F73093F30288E0F1
:1053F0000E94621784E08093D403D2CFC7FE05C019
:10540000DA94D00ED092E503CBCFC4FEC9CFD394AB
:10541000F9CF9091E5039F3F29F41092E503109294
:10542000D403E1CCE92F092E000CFF0BEF5FFE4FF8
:1054300082A18150843678F482A39093F40286E0AE
:105440008093F3021092E50388E00E94621784E0E3
:105450008093D403C8CC83E6EFCFF0901708F09484
:1054600080911608F8220091E503E02F002E000C31
:10547000FF0BFA83E9839F01359527952295220F2B
:10548000207E3EE1320F802F81708A5FF0E88F9F8F
:10549000C00111248F5E9B4F4FEF321730F0FC019B
:1054A000E20FF11D40832F5FF8CF0E94AC19F3FE8D
:1054B00008C01092E5031092D4038091E503877031
:1054C00058CBF2FE30C029813A812F5F3E4FF9015F
:1054D00082A5882341F190911301981788F40E94C6
:1054E0009E1883E18093E40384E38093E30384EDD7
:1054F00094E20E94901A0E94F6140E943116DDCFA9
:105500000093F40286E08093F30288E00E94621721
:1055100002302CF01093D4031092E503CECF84E038
:105520008093D403F9CF8F2D807929F0F1E00F27F4
:105530000093E503C2CFF5FE02C00A5FF9CFF6FE85
:10554000BCCF0E5FF5CF4FEC53E0E6EFF2E090E01A
:1055500080E027853089821793070CF4C9017F9674
:105560004E175F07B1F760E00097F9F0E6EFF2E061
:1055700030E020E042814F3081F0438154811416A5
:1055800015065CF4478550898417950731F4D901D5
:10559000A652BD4F13966C936F5F7F962C5F3F4F63
:1055A0002C31310539F70197DFCF2AED32E03A830C
:1055B0002983B6EFEB2EB2E0FB2ED12CC12C03E0F9
:1055C000902E8C2CE981FA8183818F3F39F1F7018C
:1055D0002589878190852817190611F00CF041C0A4
:1055E000222309F43EC08581968195958795238174
:1055F00034818217930744F10E946F3620EA36E81F
:1056000041E050E00E94DD366035734C8105910524
:10561000DCF4E981FA819082C1821282FFEFCF1A15
:10562000DF0A29813A812C5F3F4F3A8329833FE18A
:10563000E30EF11C46E0C416D10419F685E0809310
:10564000D4031092E203B2CA76EFA72E72E0B72E0F
:1056500000E0801244C0FFE1AF0EB11C0F5F0630C6
:10566000C1F7E981FA8180818F3F01F50E946F3691
:1056700020EA36E841E050E00E94DD3621E060316A
:1056800077428105910574F00E946F3620EA36E872
:1056900041E050E00E94DD36683E7340810591058F
:1056A0002CF424E0E981FA8120838182E981FA8166
:1056B00080818F3F09F0B2CF26E0218390E080E027
:1056C000F701E80FF91F278921110C94B4350196D1
:1056D00086309105A9F7E981FA8110829FCFF50103
:1056E00023813481121613060CF0B5CF8581968183
:1056F00095958795821793070CF4ADCF0E946F366E
:1057000020EA36E841E050E00E94DD36683A714612
:10571000810591050CF09FCFE981FA819082018388
:1057200012829FCF1092E40380E38093E3031092F0
:10573000D3038091E5038111C6C288E00E946217FD
:105740001092D4038AED92E09A83898356EFC52E96
:1057500052E0D52E1C821B821E820B81E981FA81C8
:10576000F381FD83F111FBC0F601838194810097E1
:1057700071F424E00202F0011124E652FD4F83810E
:10578000815083830F5F0730A0F385E061CE181648
:1057900019060CF0E4C0E981FA81F181F987EF2E56
:1057A000FF0FFF082FE12E9DF0012F9DF00D11241A
:1057B000EA50FD4F83819481181619060CF0CFC072
:1057C00089850E946217F701EE0FFF1FEE0FFF1F82
:1057D000E652FD4F8081912C813021F49380991CF9
:1057E0009924991C35E03093D403B090E7038B2DB6
:1057F00089608093E703802F0E949D1980E00E94BA
:10580000C218E981FA810081E02FEE0FFF0BE45B03
:10581000FA4D859194910E94901A01117AC0898560
:105820000E949D192FE12E9DF0012F9DF00D112456
:10583000EA50FD4F8585968595958795F601A38459
:10584000B484A81AB90AB594A7941A141B041CF0BE
:10585000AA24A394B12C0E946F3620EA36E841E0D6
:1058600050E00E94DD36683B7B408105910514F4D1
:10587000AA0CBB1C992011F0B594A7942FE12E9D82
:10588000F0012F9DF00D1124EA50FD4F2581368146
:10589000838194818A199B099483838397FF33C002
:1058A000148213823FE13E9DF0013F9DF00D1124D3
:1058B000EA50FD4F83819481892BB1F4258D80912D
:1058C000D1039091D203820F911D9093D2038093C4
:1058D000D103268D8091CF039091D003820F911D2B
:1058E0009093D0038093CF0388E495E20E94901AAE
:1058F00080E00E94C218C5010E94471984E495E225
:105900000E94901A2CC02817390764F63483238329
:10591000C9CF023009F050C0E981FA81F281FD83DC
:1059200028E0F202C001112468E08C5F9A4D0E94C9
:1059300088198D810E9445183FE13E9DF0013F9DF1
:10594000F00D1124EA50FD4F809111019091120148
:10595000948383838091130190E090878783E9810A
:10596000FA818381815083832B813C812F5F3F4F5C
:105970003C832B833496FA83E9833FE1C30ED11C29
:105980008B819C81079709F0E8CE8091B3039091B9
:10599000B40390931201809311018091B703809317
:1059A00013010E94AE188091D403853009F087C19D
:1059B0008091E5038F5FDDC8033009F060C1E981A4
:1059C000FA810281802F002E000C990B4FE12B8170
:1059D0003C81429FF001439FF00D1124EA50FD4F9E
:1059E000E80FF91FB5888B2C912CF60127813085A3
:1059F0002819390930872783880F991F880F991F25
:105A000064E08C519B4D0E9488198BE18B0D0E94A4
:105A1000C218E6EFF2E0013009F49BC08FE30E9468
:105A2000C218023014F40C94F03589850E949D1937
:105A300080E00E94C218F60121893289829EC0014D
:105A4000839E900D929E900D1124B1010E946E379D
:105A50002385348537FF02C02F5F3F4F359527954B
:105A6000260F371F4FE14E9DF0014F9DF00D112481
:105A7000EA50FD4F8585968597FD03969595879508
:105A800095958795281B390B8FE18E9DF0018F9D91
:105A9000F00D1124EA50FD4F818992896DEF7FEF5F
:105AA0000E946E37260F371F1216130614F021E0DE
:105AB00030E09FE19E9DF0019F9DF00D1124EA5082
:105AC000FD4F000F8389948902C0969587950A95AA
:105AD000E2F7482F4370429FC001439F900D11246D
